{
  "_format": "hh-sol-artifact-1",
  "contractName": "Faucet",
  "sourceName": "contracts/faucet.sol",
  "abi": [
    {
      "inputs": [
        {
          "internalType": "address",
          "name": "_token",
          "type": "address"
        }
      ],
      "stateMutability": "nonpayable",
      "type": "constructor"
    },
    {
      "anonymous": false,
      "inputs": [
        {
          "indexed": true,
          "internalType": "address",
          "name": "user",
          "type": "address"
        },
        {
          "indexed": false,
          "internalType": "uint256",
          "name": "amount",
          "type": "uint256"
        }
      ],
      "name": "Claimed",
      "type": "event"
    },
    {
      "anonymous": false,
      "inputs": [
        {
          "indexed": true,
          "internalType": "address",
          "name": "previousOwner",
          "type": "address"
        },
        {
          "indexed": true,
          "internalType": "address",
          "name": "newOwner",
          "type": "address"
        }
      ],
      "name": "OwnershipTransferred",
      "type": "event"
    },
    {
      "inputs": [],
      "name": "COOLDOWN",
      "outputs": [
        {
          "internalType": "uint256",
          "name": "",
          "type": "uint256"
        }
      ],
      "stateMutability": "view",
      "type": "function"
    },
    {
      "inputs": [],
      "name": "FAUCET_AMOUNT",
      "outputs": [
        {
          "internalType": "uint256",
          "name": "",
          "type": "uint256"
        }
      ],
      "stateMutability": "view",
      "type": "function"
    },
    {
      "inputs": [],
      "name": "claim",
      "outputs": [],
      "stateMutability": "nonpayable",
      "type": "function"
    },
    {
      "inputs": [
        {
          "internalType": "address",
          "name": "",
          "type": "address"
        }
      ],
      "name": "lastClaim",
      "outputs": [
        {
          "internalType": "uint256",
          "name": "",
          "type": "uint256"
        }
      ],
      "stateMutability": "view",
      "type": "function"
    },
    {
      "inputs": [],
      "name": "owner",
      "outputs": [
        {
          "internalType": "address",
          "name": "",
          "type": "address"
        }
      ],
      "stateMutability": "view",
      "type": "function"
    },
    {
      "inputs": [],
      "name": "token",
      "outputs": [
        {
          "internalType": "contract IERC20",
          "name": "",
          "type": "address"
        }
      ],
      "stateMutability": "view",
      "type": "function"
    },
    {
      "inputs": [
        {
          "internalType": "address",
          "name": "newOwner",
          "type": "address"
        }
      ],
      "name": "transferOwnership",
      "outputs": [],
      "stateMutability": "nonpayable",
      "type": "function"
    },
    {
      "inputs": [
        {
          "internalType": "uint256",
          "name": "amount",
          "type": "uint256"
        },
        {
          "internalType": "address",
          "name": "to",
          "type": "address"
        }
      ],
      "name": "withdraw",
      "outputs": [],
      "stateMutability": "nonpayable",
      "type": "function"
    }
  ],
  "bytecode": "0x60a06040523480156200001157600080fd5b506040516200117b3803806200117b8339818101604052810190620000379190620001e9565b336000806101000a81548173ffffffffffffffffffffffffffffffffffffffff021916908373ffffffffffffffffffffffffffffffffffffffff1602179055503373ffffffffffffffffffffffffffffffffffffffff16600073ffffffffffffffffffffffffffffffffffffffff167f8be0079c531659141344cd1fd0a4f28419497f9722a3daafe3b4186f6b6457e060405160405180910390a3600073ffffffffffffffffffffffffffffffffffffffff168173ffffffffffffffffffffffffffffffffffffffff160362000144576040517f08c379a00000000000000000000000000000000000000000000000000000000081526004016200013b906200027c565b60405180910390fd5b8073ffffffffffffffffffffffffffffffffffffffff1660808173ffffffffffffffffffffffffffffffffffffffff1681525050506200029e565b600080fd5b600073ffffffffffffffffffffffffffffffffffffffff82169050919050565b6000620001b18262000184565b9050919050565b620001c381620001a4565b8114620001cf57600080fd5b50565b600081519050620001e381620001b8565b92915050565b6000602082840312156200020257620002016200017f565b5b60006200021284828501620001d2565b91505092915050565b600082825260208201905092915050565b7f746f6b656e2061646472207a65726f0000000000000000000000000000000000600082015250565b600062000264600f836200021b565b915062000271826200022c565b602082019050919050565b60006020820190508181036000830152620002978162000255565b9050919050565b608051610eac620002cf60003960008181610275015281816103ef0152818161050e01526108480152610eac6000f3fe608060405234801561001057600080fd5b50600436106100875760003560e01c80638da5cb5b1161005b5780638da5cb5b14610100578063a2724a4d1461011e578063f2fde38b1461013c578063fc0c546a1461015857610087565b8062f714ce1461008c5780634e71d92d146100a85780635c16e15e146100b257806376697640146100e2575b600080fd5b6100a660048036038101906100a19190610903565b610176565b005b6100b0610354565b005b6100cc60048036038101906100c79190610943565b610642565b6040516100d9919061097f565b60405180910390f35b6100ea61065a565b6040516100f7919061097f565b60405180910390f35b610108610662565b60405161011591906109a9565b60405180910390f35b610126610686565b604051610133919061097f565b60405180910390f35b61015660048036038101906101519190610943565b61068c565b005b610160610846565b60405161016d9190610a23565b60405180910390f35b60008054906101000a900473ffffffffffffffffffffffffffffffffffffffff1673ffffffffffffffffffffffffffffffffffffffff163373ffffffffffffffffffffffffffffffffffffffff1614610204576040517f08c379a00000000000000000000000000000000000000000000000000000000081526004016101fb90610a9b565b60405180910390fd5b600073ffffffffffffffffffffffffffffffffffffffff168173ffffffffffffffffffffffffffffffffffffffff1603610273576040517f08c379a000000000000000000000000000000000000000000000000000000000815260040161026a90610b07565b60405180910390fd5b7f000000000000000000000000000000000000000000000000000000000000000073ffffffffffffffffffffffffffffffffffffffff1663a9059cbb82846040518363ffffffff1660e01b81526004016102ce929190610b27565b6020604051808303816000875af11580156102ed573d6000803e3d6000fd5b505050506040513d601f19601f820116820180604052508101906103119190610b88565b610350576040517f08c379a000000000000000000000000000000000000000000000000000000000815260040161034790610c01565b60405180910390fd5b5050565b6000600160003373ffffffffffffffffffffffffffffffffffffffff1673ffffffffffffffffffffffffffffffffffffffff168152602001908152602001600020549050610e1081426103a79190610c50565b10156103e8576040517f08c379a00000000000000000000000000000000000000000000000000000000081526004016103df90610cd0565b60405180910390fd5b6305f5e1007f000000000000000000000000000000000000000000000000000000000000000073ffffffffffffffffffffffffffffffffffffffff166370a08231306040518263ffffffff1660e01b815260040161044691906109a9565b602060405180830381865afa158015610463573d6000803e3d6000fd5b505050506040513d601f19601f820116820180604052508101906104879190610d05565b10156104c8576040517f08c379a00000000000000000000000000000000000000000000000000000000081526004016104bf90610d7e565b60405180910390fd5b42600160003373ffffffffffffffffffffffffffffffffffffffff1673ffffffffffffffffffffffffffffffffffffffff168152602001908152602001600020819055507f000000000000000000000000000000000000000000000000000000000000000073ffffffffffffffffffffffffffffffffffffffff1663a9059cbb336305f5e1006040518363ffffffff1660e01b815260040161056b929190610b27565b6020604051808303816000875af115801561058a573d6000803e3d6000fd5b505050506040513d601f19601f820116820180604052508101906105ae9190610b88565b6105ed576040517f08c379a00000000000000000000000000000000000000000000000000000000081526004016105e490610dea565b60405180910390fd5b3373ffffffffffffffffffffffffffffffffffffffff167fd8138f8a3f377c5259ca548e70e4c2de94f129f5a11036a15b69513cba2b426a6305f5e100604051610637919061097f565b60405180910390a250565b60016020528060005260406000206000915090505481565b6305f5e10081565b60008054906101000a900473ffffffffffffffffffffffffffffffffffffffff1681565b610e1081565b60008054906101000a900473ffffffffffffffffffffffffffffffffffffffff1673ffffffffffffffffffffffffffffffffffffffff163373ffffffffffffffffffffffffffffffffffffffff161461071a576040517f08c379a000000000000000000000000000000000000000000000000000000000815260040161071190610a9b565b60405180910390fd5b600073ffffffffffffffffffffffffffffffffffffffff168173ffffffffffffffffffffffffffffffffffffffff1603610789576040517f08c379a000000000000000000000000000000000000000000000000000000000815260040161078090610e56565b60405180910390fd5b8073ffffffffffffffffffffffffffffffffffffffff1660008054906101000a900473ffffffffffffffffffffffffffffffffffffffff1673ffffffffffffffffffffffffffffffffffffffff167f8be0079c531659141344cd1fd0a4f28419497f9722a3daafe3b4186f6b6457e060405160405180910390a3806000806101000a81548173ffffffffffffffffffffffffffffffffffffffff021916908373ffffffffffffffffffffffffffffffffffffffff16021790555050565b7f000000000000000000000000000000000000000000000000000000000000000081565b600080fd5b6000819050919050565b6108828161086f565b811461088d57600080fd5b50565b60008135905061089f81610879565b92915050565b600073ffffffffffffffffffffffffffffffffffffffff82169050919050565b60006108d0826108a5565b9050919050565b6108e0816108c5565b81146108eb57600080fd5b50565b6000813590506108fd816108d7565b92915050565b6000806040838503121561091a5761091961086a565b5b600061092885828601610890565b9250506020610939858286016108ee565b9150509250929050565b6000602082840312156109595761095861086a565b5b6000610967848285016108ee565b91505092915050565b6109798161086f565b82525050565b60006020820190506109946000830184610970565b92915050565b6109a3816108c5565b82525050565b60006020820190506109be600083018461099a565b92915050565b6000819050919050565b60006109e96109e46109df846108a5565b6109c4565b6108a5565b9050919050565b60006109fb826109ce565b9050919050565b6000610a0d826109f0565b9050919050565b610a1d81610a02565b82525050565b6000602082019050610a386000830184610a14565b92915050565b600082825260208201905092915050565b7f6e6f74206f776e65720000000000000000000000000000000000000000000000600082015250565b6000610a85600983610a3e565b9150610a9082610a4f565b602082019050919050565b60006020820190508181036000830152610ab481610a78565b9050919050565b7f7a65726f20616464720000000000000000000000000000000000000000000000600082015250565b6000610af1600983610a3e565b9150610afc82610abb565b602082019050919050565b60006020820190508181036000830152610b2081610ae4565b9050919050565b6000604082019050610b3c600083018561099a565b610b496020830184610970565b9392505050565b60008115159050919050565b610b6581610b50565b8114610b7057600080fd5b50565b600081519050610b8281610b5c565b92915050565b600060208284031215610b9e57610b9d61086a565b5b6000610bac84828501610b73565b91505092915050565b7f7769746864726177207472616e73666572206661696c65640000000000000000600082015250565b6000610beb601883610a3e565b9150610bf682610bb5565b602082019050919050565b60006020820190508181036000830152610c1a81610bde565b9050919050565b7f4e487b7100000000000000000000000000000000000000000000000000000000600052601160045260246000fd5b6000610c5b8261086f565b9150610c668361086f565b9250828203905081811115610c7e57610c7d610c21565b5b92915050565b7f77616974206265666f7265206e65787420636c61696d00000000000000000000600082015250565b6000610cba601683610a3e565b9150610cc582610c84565b602082019050919050565b60006020820190508181036000830152610ce981610cad565b9050919050565b600081519050610cff81610879565b92915050565b600060208284031215610d1b57610d1a61086a565b5b6000610d2984828501610cf0565b91505092915050565b7f66617563657420656d7074790000000000000000000000000000000000000000600082015250565b6000610d68600c83610a3e565b9150610d7382610d32565b602082019050919050565b60006020820190508181036000830152610d9781610d5b565b9050919050565b7f7472616e73666572206661696c65640000000000000000000000000000000000600082015250565b6000610dd4600f83610a3e565b9150610ddf82610d9e565b602082019050919050565b60006020820190508181036000830152610e0381610dc7565b9050919050565b7f7a65726f20616464726573730000000000000000000000000000000000000000600082015250565b6000610e40600c83610a3e565b9150610e4b82610e0a565b602082019050919050565b60006020820190508181036000830152610e6f81610e33565b905091905056fea2646970667358221220953f2a90772d56fa9c99a58f2695209a2f11fecb49a14f71726e5b02cc35dba464736f6c63430008140033",
  "linkReferences": {},
  "deployedLinkReferences": {}
}