{
  "_format": "hh-sol-artifact-1",
  "contractName": "SavingsVault",
  "sourceName": "contracts/SavingsVault.sol",
  "abi": [
    {
      "inputs": [
        {
          "internalType": "address",
          "name": "_asset",
          "type": "address"
        },
        {
          "internalType": "string",
          "name": "_name",
          "type": "string"
        },
        {
          "internalType": "string",
          "name": "_symbol",
          "type": "string"
        }
      ],
      "stateMutability": "nonpayable",
      "type": "constructor"
    },
    {
      "anonymous": false,
      "inputs": [
        {
          "indexed": true,
          "internalType": "address",
          "name": "user",
          "type": "address"
        },
        {
          "indexed": false,
          "internalType": "uint256",
          "name": "assets",
          "type": "uint256"
        },
        {
          "indexed": false,
          "internalType": "uint256",
          "name": "shares",
          "type": "uint256"
        }
      ],
      "name": "Deposit",
      "type": "event"
    },
    {
      "anonymous": false,
      "inputs": [
        {
          "indexed": true,
          "internalType": "address",
          "name": "previousOwner",
          "type": "address"
        },
        {
          "indexed": true,
          "internalType": "address",
          "name": "newOwner",
          "type": "address"
        }
      ],
      "name": "OwnershipTransferred",
      "type": "event"
    },
    {
      "anonymous": false,
      "inputs": [
        {
          "indexed": true,
          "internalType": "address",
          "name": "user",
          "type": "address"
        },
        {
          "indexed": false,
          "internalType": "uint256",
          "name": "assets",
          "type": "uint256"
        },
        {
          "indexed": false,
          "internalType": "uint256",
          "name": "shares",
          "type": "uint256"
        }
      ],
      "name": "Withdraw",
      "type": "event"
    },
    {
      "anonymous": false,
      "inputs": [
        {
          "indexed": true,
          "internalType": "address",
          "name": "from",
          "type": "address"
        },
        {
          "indexed": false,
          "internalType": "uint256",
          "name": "newTotalAssets",
          "type": "uint256"
        }
      ],
      "name": "YieldInjected",
      "type": "event"
    },
    {
      "inputs": [],
      "name": "asset",
      "outputs": [
        {
          "internalType": "contract IERC20",
          "name": "",
          "type": "address"
        }
      ],
      "stateMutability": "view",
      "type": "function"
    },
    {
      "inputs": [
        {
          "internalType": "address",
          "name": "",
          "type": "address"
        }
      ],
      "name": "balanceOf",
      "outputs": [
        {
          "internalType": "uint256",
          "name": "",
          "type": "uint256"
        }
      ],
      "stateMutability": "view",
      "type": "function"
    },
    {
      "inputs": [
        {
          "internalType": "uint256",
          "name": "shares",
          "type": "uint256"
        }
      ],
      "name": "convertToAssets",
      "outputs": [
        {
          "internalType": "uint256",
          "name": "",
          "type": "uint256"
        }
      ],
      "stateMutability": "view",
      "type": "function"
    },
    {
      "inputs": [
        {
          "internalType": "uint256",
          "name": "assets",
          "type": "uint256"
        }
      ],
      "name": "convertToShares",
      "outputs": [
        {
          "internalType": "uint256",
          "name": "",
          "type": "uint256"
        }
      ],
      "stateMutability": "view",
      "type": "function"
    },
    {
      "inputs": [],
      "name": "decimals",
      "outputs": [
        {
          "internalType": "uint8",
          "name": "",
          "type": "uint8"
        }
      ],
      "stateMutability": "view",
      "type": "function"
    },
    {
      "inputs": [
        {
          "internalType": "uint256",
          "name": "assets",
          "type": "uint256"
        }
      ],
      "name": "deposit",
      "outputs": [
        {
          "internalType": "uint256",
          "name": "shares",
          "type": "uint256"
        }
      ],
      "stateMutability": "nonpayable",
      "type": "function"
    },
    {
      "inputs": [],
      "name": "name",
      "outputs": [
        {
          "internalType": "string",
          "name": "",
          "type": "string"
        }
      ],
      "stateMutability": "view",
      "type": "function"
    },
    {
      "inputs": [],
      "name": "notifyYieldInjection",
      "outputs": [],
      "stateMutability": "nonpayable",
      "type": "function"
    },
    {
      "inputs": [],
      "name": "owner",
      "outputs": [
        {
          "internalType": "address",
          "name": "",
          "type": "address"
        }
      ],
      "stateMutability": "view",
      "type": "function"
    },
    {
      "inputs": [],
      "name": "symbol",
      "outputs": [
        {
          "internalType": "string",
          "name": "",
          "type": "string"
        }
      ],
      "stateMutability": "view",
      "type": "function"
    },
    {
      "inputs": [],
      "name": "totalAssets",
      "outputs": [
        {
          "internalType": "uint256",
          "name": "",
          "type": "uint256"
        }
      ],
      "stateMutability": "view",
      "type": "function"
    },
    {
      "inputs": [],
      "name": "totalShares",
      "outputs": [
        {
          "internalType": "uint256",
          "name": "",
          "type": "uint256"
        }
      ],
      "stateMutability": "view",
      "type": "function"
    },
    {
      "inputs": [
        {
          "internalType": "address",
          "name": "newOwner",
          "type": "address"
        }
      ],
      "name": "transferOwnership",
      "outputs": [],
      "stateMutability": "nonpayable",
      "type": "function"
    },
    {
      "inputs": [
        {
          "internalType": "uint256",
          "name": "shares",
          "type": "uint256"
        }
      ],
      "name": "withdraw",
      "outputs": [
        {
          "internalType": "uint256",
          "name": "assetsOut",
          "type": "uint256"
        }
      ],
      "stateMutability": "nonpayable",
      "type": "function"
    }
  ],
  "bytecode": "0x60a06040523480156200001157600080fd5b5060405162001def38038062001def83398181016040528101906200003791906200039d565b336000806101000a81548173ffffffffffffffffffffffffffffffffffffffff021916908373ffffffffffffffffffffffffffffffffffffffff1602179055503373ffffffffffffffffffffffffffffffffffffffff16600073ffffffffffffffffffffffffffffffffffffffff167f8be0079c531659141344cd1fd0a4f28419497f9722a3daafe3b4186f6b6457e060405160405180910390a3600073ffffffffffffffffffffffffffffffffffffffff168373ffffffffffffffffffffffffffffffffffffffff160362000144576040517f08c379a00000000000000000000000000000000000000000000000000000000081526004016200013b9062000498565b60405180910390fd5b8273ffffffffffffffffffffffffffffffffffffffff1660808173ffffffffffffffffffffffffffffffffffffffff1681525050816001908162000189919062000705565b5080600290816200019b919062000705565b50505050620007ec565b6000604051905090565b600080fd5b600080fd5b600073ffffffffffffffffffffffffffffffffffffffff82169050919050565b6000620001e682620001b9565b9050919050565b620001f881620001d9565b81146200020457600080fd5b50565b6000815190506200021881620001ed565b92915050565b600080fd5b600080fd5b6000601f19601f8301169050919050565b7f4e487b7100000000000000000000000000000000000000000000000000000000600052604160045260246000fd5b620002738262000228565b810181811067ffffffffffffffff8211171562000295576200029462000239565b5b80604052505050565b6000620002aa620001a5565b9050620002b8828262000268565b919050565b600067ffffffffffffffff821115620002db57620002da62000239565b5b620002e68262000228565b9050602081019050919050565b60005b8381101562000313578082015181840152602081019050620002f6565b60008484015250505050565b6000620003366200033084620002bd565b6200029e565b90508281526020810184848401111562000355576200035462000223565b5b62000362848285620002f3565b509392505050565b600082601f8301126200038257620003816200021e565b5b8151620003948482602086016200031f565b91505092915050565b600080600060608486031215620003b957620003b8620001af565b5b6000620003c98682870162000207565b935050602084015167ffffffffffffffff811115620003ed57620003ec620001b4565b5b620003fb868287016200036a565b925050604084015167ffffffffffffffff8111156200041f576200041e620001b4565b5b6200042d868287016200036a565b9150509250925092565b600082825260208201905092915050565b7f61737365742061646472207a65726f0000000000000000000000000000000000600082015250565b600062000480600f8362000437565b91506200048d8262000448565b602082019050919050565b60006020820190508181036000830152620004b38162000471565b9050919050565b600081519050919050565b7f4e487b7100000000000000000000000000000000000000000000000000000000600052602260045260246000fd5b600060028204905060018216806200050d57607f821691505b602082108103620005235762000522620004c5565b5b50919050565b60008190508160005260206000209050919050565b60006020601f8301049050919050565b600082821b905092915050565b6000600883026200058d7fffffffffffffffffffffffffffffffffffffffffffffffffffffffffffffffff826200054e565b6200059986836200054e565b95508019841693508086168417925050509392505050565b6000819050919050565b6000819050919050565b6000620005e6620005e0620005da84620005b1565b620005bb565b620005b1565b9050919050565b6000819050919050565b6200060283620005c5565b6200061a6200061182620005ed565b8484546200055b565b825550505050565b600090565b6200063162000622565b6200063e818484620005f7565b505050565b5b8181101562000666576200065a60008262000627565b60018101905062000644565b5050565b601f821115620006b5576200067f8162000529565b6200068a846200053e565b810160208510156200069a578190505b620006b2620006a9856200053e565b83018262000643565b50505b505050565b600082821c905092915050565b6000620006da60001984600802620006ba565b1980831691505092915050565b6000620006f58383620006c7565b9150826002028217905092915050565b6200071082620004ba565b67ffffffffffffffff8111156200072c576200072b62000239565b5b620007388254620004f4565b620007458282856200066a565b600060209050601f8311600181146200077d576000841562000768578287015190505b620007748582620006e7565b865550620007e4565b601f1984166200078d8662000529565b60005b82811015620007b75784890151825560018201915060208501945060208101905062000790565b86831015620007d75784890151620007d3601f891682620006c7565b8355505b6001600288020188555050505b505050505050565b6080516115d26200081d600039600081816102db015281816105d101528181610709015261088f01526115d26000f3fe608060405234801561001057600080fd5b50600436106100ea5760003560e01c806370a082311161008c578063b6b55f2511610066578063b6b55f2514610251578063c6e6f59214610281578063f2fde38b146102b1578063f4c3045c146102cd576100ea565b806370a08231146101e55780638da5cb5b1461021557806395d89b4114610233576100ea565b80632e1a7d4d116100c85780632e1a7d4d1461015b578063313ce5671461018b57806338d52e0f146101a95780633a98ef39146101c7576100ea565b806301e1d114146100ef57806306fdde031461010d57806307a2d13a1461012b575b600080fd5b6100f76102d7565b6040516101049190610d4e565b60405180910390f35b610115610378565b6040516101229190610df9565b60405180910390f35b61014560048036038101906101409190610e4c565b610406565b6040516101529190610d4e565b60405180910390f35b61017560048036038101906101709190610e4c565b61044e565b6040516101829190610d4e565b60405180910390f35b610193610702565b6040516101a09190610e95565b60405180910390f35b6101b1610707565b6040516101be9190610f2f565b60405180910390f35b6101cf61072b565b6040516101dc9190610d4e565b60405180910390f35b6101ff60048036038101906101fa9190610f88565b610731565b60405161020c9190610d4e565b60405180910390f35b61021d610749565b60405161022a9190610fc4565b60405180910390f35b61023b61076d565b6040516102489190610df9565b60405180910390f35b61026b60048036038101906102669190610e4c565b6107fb565b6040516102789190610d4e565b60405180910390f35b61029b60048036038101906102969190610e4c565b610a30565b6040516102a89190610d4e565b60405180910390f35b6102cb60048036038101906102c69190610f88565b610a96565b005b6102d5610c50565b005b60007f000000000000000000000000000000000000000000000000000000000000000073ffffffffffffffffffffffffffffffffffffffff166370a08231306040518263ffffffff1660e01b81526004016103329190610fc4565b602060405180830381865afa15801561034f573d6000803e3d6000fd5b505050506040513d601f19601f820116820180604052508101906103739190610ff4565b905090565b6001805461038590611050565b80601f01602080910402602001604051908101604052809291908181526020018280546103b190611050565b80156103fe5780601f106103d3576101008083540402835291602001916103fe565b820191906000526020600020905b8154815290600101906020018083116103e157829003601f168201915b505050505081565b600080600354905060006104186102d7565b90506000820361042d57600092505050610449565b81818561043a91906110b0565b6104449190611121565b925050505b919050565b6000808211610492576040517f08c379a00000000000000000000000000000000000000000000000000000000081526004016104899061119e565b60405180910390fd5b6000600460003373ffffffffffffffffffffffffffffffffffffffff1673ffffffffffffffffffffffffffffffffffffffff16815260200190815260200160002054905082811015610519576040517f08c379a00000000000000000000000000000000000000000000000000000000081526004016105109061120a565b60405180910390fd5b61052283610406565b915060008211610567576040517f08c379a000000000000000000000000000000000000000000000000000000000815260040161055e90611276565b60405180910390fd5b82816105739190611296565b600460003373ffffffffffffffffffffffffffffffffffffffff1673ffffffffffffffffffffffffffffffffffffffff1681526020019081526020016000208190555082600360008282546105c89190611296565b925050819055507f000000000000000000000000000000000000000000000000000000000000000073ffffffffffffffffffffffffffffffffffffffff1663a9059cbb33846040518363ffffffff1660e01b815260040161062a9291906112ca565b6020604051808303816000875af1158015610649573d6000803e3d6000fd5b505050506040513d601f19601f8201168201806040525081019061066d919061132b565b6106ac576040517f08c379a00000000000000000000000000000000000000000000000000000000081526004016106a3906113a4565b60405180910390fd5b3373ffffffffffffffffffffffffffffffffffffffff167ff279e6a1f5e320cca91135676d9cb6e44ca8a08c0b88342bcdb1144f6511b56883856040516106f49291906113c4565b60405180910390a250919050565b601281565b7f000000000000000000000000000000000000000000000000000000000000000081565b60035481565b60046020528060005260406000206000915090505481565b60008054906101000a900473ffffffffffffffffffffffffffffffffffffffff1681565b6002805461077a90611050565b80601f01602080910402602001604051908101604052809291908181526020018280546107a690611050565b80156107f35780601f106107c8576101008083540402835291602001916107f3565b820191906000526020600020905b8154815290600101906020018083116107d657829003601f168201915b505050505081565b600080821161083f576040517f08c379a000000000000000000000000000000000000000000000000000000000815260040161083690611276565b60405180910390fd5b61084882610a30565b90506000811161088d576040517f08c379a00000000000000000000000000000000000000000000000000000000081526004016108849061119e565b60405180910390fd5b7f000000000000000000000000000000000000000000000000000000000000000073ffffffffffffffffffffffffffffffffffffffff166323b872dd3330856040518463ffffffff1660e01b81526004016108ea939291906113ed565b6020604051808303816000875af1158015610909573d6000803e3d6000fd5b505050506040513d601f19601f8201168201806040525081019061092d919061132b565b61096c576040517f08c379a000000000000000000000000000000000000000000000000000000000815260040161096390611470565b60405180910390fd5b806003600082825461097e9190611490565b9250508190555080600460003373ffffffffffffffffffffffffffffffffffffffff1673ffffffffffffffffffffffffffffffffffffffff16815260200190815260200160002060008282546109d49190611490565b925050819055503373ffffffffffffffffffffffffffffffffffffffff167f90890809c654f11d6e72a28fa60149770a0d11ec6c92319d6ceb2bb0a4ea1a158383604051610a239291906113c4565b60405180910390a2919050565b60008060035490506000610a426102d7565b90506000821480610a535750600081145b15610a7557670de0b6b3a764000084610a6c91906110b0565b92505050610a91565b808285610a8291906110b0565b610a8c9190611121565b925050505b919050565b60008054906101000a900473ffffffffffffffffffffffffffffffffffffffff1673ffffffffffffffffffffffffffffffffffffffff163373ffffffffffffffffffffffffffffffffffffffff1614610b24576040517f08c379a0000000000000000000000000000000000000000000000000000000008152600401610b1b90611510565b60405180910390fd5b600073ffffffffffffffffffffffffffffffffffffffff168173ffffffffffffffffffffffffffffffffffffffff1603610b93576040517f08c379a0000000000000000000000000000000000000000000000000000000008152600401610b8a9061157c565b60405180910390fd5b8073ffffffffffffffffffffffffffffffffffffffff1660008054906101000a900473ffffffffffffffffffffffffffffffffffffffff1673ffffffffffffffffffffffffffffffffffffffff167f8be0079c531659141344cd1fd0a4f28419497f9722a3daafe3b4186f6b6457e060405160405180910390a3806000806101000a81548173ffffffffffffffffffffffffffffffffffffffff021916908373ffffffffffffffffffffffffffffffffffffffff16021790555050565b60008054906101000a900473ffffffffffffffffffffffffffffffffffffffff1673ffffffffffffffffffffffffffffffffffffffff163373ffffffffffffffffffffffffffffffffffffffff1614610cde576040517f08c379a0000000000000000000000000000000000000000000000000000000008152600401610cd590611510565b60405180910390fd5b3373ffffffffffffffffffffffffffffffffffffffff167fa77f4ba8db1ef62c4587a06b4e9826a206b454c85283d771045d26672090ea70610d1e6102d7565b604051610d2b9190610d4e565b60405180910390a2565b6000819050919050565b610d4881610d35565b82525050565b6000602082019050610d636000830184610d3f565b92915050565b600081519050919050565b600082825260208201905092915050565b60005b83811015610da3578082015181840152602081019050610d88565b60008484015250505050565b6000601f19601f8301169050919050565b6000610dcb82610d69565b610dd58185610d74565b9350610de5818560208601610d85565b610dee81610daf565b840191505092915050565b60006020820190508181036000830152610e138184610dc0565b905092915050565b600080fd5b610e2981610d35565b8114610e3457600080fd5b50565b600081359050610e4681610e20565b92915050565b600060208284031215610e6257610e61610e1b565b5b6000610e7084828501610e37565b91505092915050565b600060ff82169050919050565b610e8f81610e79565b82525050565b6000602082019050610eaa6000830184610e86565b92915050565b600073ffffffffffffffffffffffffffffffffffffffff82169050919050565b6000819050919050565b6000610ef5610ef0610eeb84610eb0565b610ed0565b610eb0565b9050919050565b6000610f0782610eda565b9050919050565b6000610f1982610efc565b9050919050565b610f2981610f0e565b82525050565b6000602082019050610f446000830184610f20565b92915050565b6000610f5582610eb0565b9050919050565b610f6581610f4a565b8114610f7057600080fd5b50565b600081359050610f8281610f5c565b92915050565b600060208284031215610f9e57610f9d610e1b565b5b6000610fac84828501610f73565b91505092915050565b610fbe81610f4a565b82525050565b6000602082019050610fd96000830184610fb5565b92915050565b600081519050610fee81610e20565b92915050565b60006020828403121561100a57611009610e1b565b5b600061101884828501610fdf565b91505092915050565b7f4e487b7100000000000000000000000000000000000000000000000000000000600052602260045260246000fd5b6000600282049050600182168061106857607f821691505b60208210810361107b5761107a611021565b5b50919050565b7f4e487b7100000000000000000000000000000000000000000000000000000000600052601160045260246000fd5b60006110bb82610d35565b91506110c683610d35565b92508282026110d481610d35565b915082820484148315176110eb576110ea611081565b5b5092915050565b7f4e487b7100000000000000000000000000000000000000000000000000000000600052601260045260246000fd5b600061112c82610d35565b915061113783610d35565b925082611147576111466110f2565b5b828204905092915050565b7f7a65726f20736861726573000000000000000000000000000000000000000000600082015250565b6000611188600b83610d74565b915061119382611152565b602082019050919050565b600060208201905081810360008301526111b78161117b565b9050919050565b7f696e73756666696369656e742073686172657300000000000000000000000000600082015250565b60006111f4601383610d74565b91506111ff826111be565b602082019050919050565b60006020820190508181036000830152611223816111e7565b9050919050565b7f7a65726f20617373657473000000000000000000000000000000000000000000600082015250565b6000611260600b83610d74565b915061126b8261122a565b602082019050919050565b6000602082019050818103600083015261128f81611253565b9050919050565b60006112a182610d35565b91506112ac83610d35565b92508282039050818111156112c4576112c3611081565b5b92915050565b60006040820190506112df6000830185610fb5565b6112ec6020830184610d3f565b9392505050565b60008115159050919050565b611308816112f3565b811461131357600080fd5b50565b600081519050611325816112ff565b92915050565b60006020828403121561134157611340610e1b565b5b600061134f84828501611316565b91505092915050565b7f7472616e73666572206661696c65640000000000000000000000000000000000600082015250565b600061138e600f83610d74565b915061139982611358565b602082019050919050565b600060208201905081810360008301526113bd81611381565b9050919050565b60006040820190506113d96000830185610d3f565b6113e66020830184610d3f565b9392505050565b60006060820190506114026000830186610fb5565b61140f6020830185610fb5565b61141c6040830184610d3f565b949350505050565b7f7472616e7366657246726f6d206661696c656400000000000000000000000000600082015250565b600061145a601383610d74565b915061146582611424565b602082019050919050565b600060208201905081810360008301526114898161144d565b9050919050565b600061149b82610d35565b91506114a683610d35565b92508282019050808211156114be576114bd611081565b5b92915050565b7f6e6f74206f776e65720000000000000000000000000000000000000000000000600082015250565b60006114fa600983610d74565b9150611505826114c4565b602082019050919050565b60006020820190508181036000830152611529816114ed565b9050919050565b7f7a65726f20616464726573730000000000000000000000000000000000000000600082015250565b6000611566600c83610d74565b915061157182611530565b602082019050919050565b6000602082019050818103600083015261159581611559565b905091905056fea264697066735822122043a36f0daea09b7b4b17c7878716bc079cc70bd28cb67fbf46fd5441eb196bae64736f6c63430008140033",
  "linkReferences": {},
  "deployedLinkReferences": {}
}